:10000000020DD1EFB40A07740D12000E740A309875
:1000100011A899B8130CC2983098FDA899C298B845
:1000200011F63099FDC299F59922EFC39461400A07
:10003000EF947B5005EF24E0FF2222020B74E51BB6
:10004000240FF8E6051B22780C300702780FE475C0
:10005000F001120AA2020A282000EB7F2ED20080B3
:1000600018EF540F2490D43440D4FF30040BEF2405
:10007000BFB41A0050032461FFE51C6002151C0583
:100080001FE51F7002051E30070D780CE475F001A6
:10009000120AA2EF020A900200037403D20780033F
:1000A000E4C207F51B8B0C8A0D890EE4F51CF51EC6
:1000B000F51FE51C60077F2012007980F5751DFF94
:1000C000C201C200C202C203C205C206C2081200B7
:1000D00047FF700D3007057F0012008AAF1FAE1E6C
:1000E00022B4255FC2D5C204120047FF24D0B40A4F
:1000F00000501A75F00A781C30D50508B6FF0106C5
:10010000C6A426F620D5047002D20380D924CFB429
:100110001A00EF5004C2E5D20402028AD20180C65E
:10012000D20080C0D20280BCD2D580BAD20580B4C1
:100130007F201200792002077401B51C0040F112E3
:10014000003EFF1200790200B2D208D2068095125A
:10015000003EFB12003EFA12003EF94A4B7006794F
:100160005B7A037BFF20022EE51C602A7E008E82D4
:10017000758300120A4160060EEE651D70F0C2D54F
:10018000EBC0E0EAC0E0E9C0E0EE1202D1D0E0F955
:10019000D0E0FAD0E0FB120A28FF60AAEBC0E0EA48
:1001A000C0E0E9C0E0120079D0E02401F9D0E034E9
:1001B00000FAD0E0FBE51D0460DCD51DD980877B0B
:1001C000FF7A0279CDD202809C791080027908C230
:1001D00006C2088008D2D5790A8004790AC2D5E51A
:1001E0001D047002F51DE4FAFDFEFF12003EFC7BCB
:1001F0000820011312003EFD7B1030000A12003E61
:10020000FE12003EFF7B20EC3382D592D55013C303
:10021000E43000069FFFE49EFEE42001039DFDE420
:100220009CFCE4CBF8C201EC700CCFCECDCCE82422
:10023000F8F870F38017C3EF33FFEE33FEED33FDB4
:10024000EC33FCEB33FB994002FB0FD8E9EB3001B8
:1002500005F8D0E0C448B201C0E00AEC4D4E4F783A
:10026000207B0070C2EAB51D0040BCC0E01202D382
:10027000D0F0D0E0200104C4C0E0C4B201C0F0124C
:100280000062D0F0D5F0EB0200B2120AB2014F5377
:1002900001C95801204C011C4201CD4F01D5440138
:1002A000D54901354301DB5501BF4601BF4501BFBB
:1002B00047037B5001242D01282E014B2B012C23B9
:1002C00001492003642A00E448000001433F3F3F06
:1002D00000790AA2D5200314300509B910020404DC
:1002E000B9080104A2D52006025001042002689238
:1002F00002B51C005034C0E07F203003197F30A2CB
:100300000272067205500F12032AC202C206C2050B
:10031000C2087F30800F300503E9C0E01200793059
:100320000503D0E0F9D0E0B51CCC3005177F30B91B
:10033000100C1200797F583004077F788003B908C9
:10034000031200793002057F2D0200797F202008FA
:10035000F87F2B2006F322920280CF286E756C6CFA
:100360002900D20112003E3001F8C201781C30D5BC
:100370000108F60200E42D5043495812003E2403C0
:10038000B405004001E49003769312006A743A12B7
:10039000006AD203751C040201C98B0C8A0D890EF8
:1003A000120A28FD7F0B120D9DAB0CAA0DA90E9011
:1003B0000001120A41FD7F0C120D9DAB0CAA0DA984
:1003C0000E900002120A41FD7F0D120D9DAB0CAA8A
:1003D0000DA90E900003120A41FD7F0E120D9DAB78
:1003E0000CAA0DA90E900004120A41FD7F0F120DF8
:1003F0009DAB0CAA0DA90E900005120A41FD7F10BD
:10040000120D9DAB0CAA0DA90E900006120A41FD1B
:100410007F11120D9DAB0CAA0DA90E900007120AB8
:1004200041FD7F12120D9DAB0CAA0DA90E90000884
:10043000120A41FD7F13120D9DAB0CAA0DA90E905F
:100440000009120A41FD7F14120D9DAB0CAA0DA9E3
:100450000E90000A120A41FD7F0A120D9DAB0CAAF4
:100460000DA90E90000B120A41FD7F15120D9DABD8
:100470000CAA0DA90E90000C120A41FD7F21120D4D
:100480009DAB0CAA0DA90E90000D120A41FD7F2212
:10049000120D9DAB0CAA0DA90E90000E120A41FD83
:1004A0007F18120D9DAB0CAA0DA90E90000F120A19
:1004B00041FD7F19120D9DAB0CAA0DA90E900010E5
:1004C000120A41FD7F1A120D9DAB0CAA0DA90E90C8
:1004D0000011120A41FD7F1B120D9DAB0CAA0DA944
:1004E0000E900012120A41FD7F1C120D9DAB0CAA4A
:1004F0000DA90E900013120A41FD7F1D120D9DAB38
:100500000CAA0DA90E900014120A41FD7F23120DB2
:100510009DAB0CAA0DA90E900015120A41FD7F2477
:10052000120D9DAB0CAA0DA90E900016120A41FDEA
:100530007F25120D9DAB0CAA0DA90E900017120A73
:1005400041FD7F26120D9DAB0CAA0DA90E9000183F
:10055000120A41FD7F29120D9DAB0CAA0DA90E9028
:100560000019120A41FD7F2C120D9DAB0CAA0DA99A
:100570000E90001A120A41FD7F2D120D9DAB0CAAA0
:100580000DA90E90001B120A41FD7F2E120D9DAB8E
:100590000CAA0DA90E90001C120A41FDE4FF120DD9
:1005A0009DAB0CAA0DA90E90001D120A41FD7F0201
:1005B000120D9DAB0CAA0DA90E90001E120A41FD52
:1005C0007F07120D9DAB0CAA0DA90E90001F120AF9
:1005D00041FD7F08120D9DAB0CAA0DA90E900020C5
:1005E000120A41FD7F09120D9DAB0CAA0DA90E90B8
:1005F0000021120A41FD7F06020D9D8B0A8A0B899C
:100600000CE4F510E551600302078475220375239D
:1006100076F524752612752776752840120A28FF6C
:10062000700BAB0DAA0EA90F120A28700EAB0DAA03
:100630000EA90F120A287075EF6072AB0AAA0BA9F7
:100640000C120A28600B7525808B118A1289138081
:100650000C7525C0850D11850E12850F13AB11AADF
:1006600012A913120C3274292510F8A607AB11AA8F
:1006700012A913AF1005108F82758300120A416012
:1006800007E510C3941040D5E510C39410501874BA
:10069000072510F510E510C39417500B7422251090
:1006A000F8769B051080EEE4F53902077BAB0AAAC9
:1006B0000BA90C120A28700302077BAB0DAA0EA926
:1006C0000F120A28700302077B75258075390375A0
:1006D0003A76E4F53B753CC0753D12753E76753F44
:1006E00040AB0AAA0BA90C120C3274292510F8A6EB
:1006F00007AB0AAA0BA90CAF1005108F82758300F7
:10070000120A416007E510C3941040D5E510C39468
:1007100010501874072510F510E510C39417500BEE
:1007200074222510F8769B051080EEE4F510AB0DD1
:10073000AA0EA90F120C3274402510F8A607AB0DB3
:10074000AA0EA90FAF1005108F82758300120A41FF
:100750006007E510C3941040D5E510C394105018FD
:10076000741E2510F510E510C3942E500B7422252D
:1007700010F8769B051080EEE4F550755101120DCE
:10078000387F01227F00225370692E63000A0A0D10
:10079000000A0D434332353030204D656E753A0AFC
:1007A0000A0D00523A205265736574204343323576
:1007B00030300A0D00573A2057726974652052652F
:1007C0006769737465722053657474696E6773200A
:1007D000746F204343323530300A0D00563A2044BE
:1007E0006973706C61792076657273696F6E206EC3
:1007F000756D6265720A0D00443A20446973706C2D
:10080000617920416C6C20526567697374657273FD
:100810000A0D00503A20577269746520746F205099
:10082000415441424C450A0D004C3A2052656164E6
:100830002050415441424C450A0D00416464722EDF
:1008400020307825303258203A2000307825303258
:10085000580A0D000A0D56657273696F6E3A2030A2
:1008600078253032580A0D0050415441424C455BC6
:100870002562755D3A20307825303258200A0D0007
:100880000B002162762D3B7322F80000B610181D74
:100890001CC700B2EA0A00115988310B0B06040587
:1008A00000FF6012002AEF24BC603D24F8700302B0
:1008B000093D24FC607724FA605E14601F24056003
:1008C00003020971C2FA2081FD75A330A2FFE4334F
:1008D00060FAC2FF2081FDD2FA02096E7BFF7A081E
:1008E000798012039A02096EE4F50B7BFF7A08798E
:1008F0003B750F00850B101200A0AF0B120D597540
:100900000F008F107BFF7A08794B1200A0050BE5D2
:100910000BD3942E40D580567F31120D7B750F007E
:100920008F107BFF7A0879541200A080417BFF7AF8
:100930000879A27510017F3E120CF780317B007A96
:100940000079557510017F3E120C77E4F50A7BFFA4
:100950007A087968850A0F7455250AF8E67510003B
:10096000F5111200A0050AE50AC3940840E0120C34
:10097000B82253D9BFE4F5B943B980F5090509E5B3
:1009800009B414F943B9C0E5B930E5FB43A90275D0
:10099000B28375E10775E2C175A43F75A59075A690
:1009A0009975F2BB75F3FD75D4C075D54C75D6023B
:1009B000120AD8750D00750E00750F007BFF7A07BF
:1009C00079871205FBE4FD7F05120BE475A14075E4
:1009D000F80875A20143F801D2FA7F017E00120DDA
:1009E000B9C2FA7F017E00120DB9D2FA7F297E00CA
:1009F000120DB9C2FA2081FD75A330A2FFE4336065
:100A0000FAC2FF2081FDD2FA120CB8D29CA298E45F
:100A10003360FA859908C2987BFF7A07798D1200B6
:100A2000A0AF081208A380E5BB010689828A83E093
:100A3000225002E722BBFE02E32289828A83E493EA
:100A400022BB010CE58229F582E5833AF583E02299
:100A50005006E92582F8E622BBFE06E92582F8E287
:100A600022E58229F582E5833AF583E49322F8BBF7
:100A7000010DE58229F582E5833AF583E8F02250FD
:100A800006E92582C8F622BBFE05E92582C8F222C6
:100A9000BB010689828A83F0225002F722BBFE0145
:100AA000F322FAE6FB0808E6F925F0F618E6CA3A5A
:100AB000F622D083D082F8E4937012740193700D03
:100AC000A3A393F8740193F5828883E4737402936B
:100AD0006860EFA3A3A380DF758C96858C8A538909
:100AE000FC438902438E04D28C43C18043E601D289
:100AF000AFE4F551F552F554C2A300000000000028
:100B0000000000D2A3752207752376F52475250C05
:100B10007526217527A0752807752924F52A120D39
:100B200035E551640160FA752203752376E4F524F6
:100B30007525807526127527767528407F107829CF
:100B4000749BF608DFFC753903753A76E4F53B755E
:100B50003CC0753D12753E76753F407F10784074FD
:100B60009BF608DFFC7F10E4F550120D35E551646B
:100B70000160FA22C0E0C0F0C083C082C0D075D04E
:100B800000C000C001C002C003C004C005C006C050
:100B900007E5C054F02440601324E0702AAF5405E8
:100BA0005474222FF8E6F5C2C2C5801B1553E553D5
:100BB000600DAF54055474222FF8E6F5C28008D2B8
:100BC000C4755200120D38C2C0D007D006D005D06F
:100BD00004D003D002D001D000D0D0D082D083D0B6
:100BE000F0D0E032EF14601514601714601914602F
:100BF0001E14602024057022758D30801D758D981F
:100C00008018758DCC8013758DB2438E01800B7565
:100C10008D308003758D98438E08D28E438920EDE8
:100C200054F0F598D299ED540FFFBF0104D2ACD225
:100C3000AF22851082758300120A41FFBF24047F12
:100C4000828033BF40047F80802CEF70047F9B80C4
:100C500025EFD3941F4005EF94244016EFD394243E
:100C60004005EF9440400BEFD394404009EF945B74
:100C7000500474802FFF228B0D8A0E890FC2FA2038
:100C800081FDEF44C0F5A3A2FFE43360FAC2FFE4A4
:100C9000FFEFC39510501EE4F5A3A2FFE43360FA02
:100CA000C2FFAB0DAA0EA90F8F82758300E5A312B8
:100CB0000A6E0F80DCD2FA227BFF7A07799112004C
:100CC000A07BFF7A0779A31200A07BFF7A0779B592
:100CD0001200A07BFF7A0779DC1200A07BFF7A0765
:100CE00079F81200A07BFF7A0879131200A07BFF2D
:100CF0007A0879290200A08B0D8A0E890FC2FA208A
:100D000081FDEF4440F5A3A2FFE43360FAC2FFE4A3
:100D1000FFEFC39510501BAB0DAA0EA90F8F827564
:100D20008300120A41F5A3A2FFE43360FAC2FF0F69
:100D300080DFD2FA22755101E551601CE55270182E
:100D4000AF54055474222FF8E6F55360067552012E
:100D5000D2C522E4F551F55422C2FA2081FDEF44B8
:100D600080F5A3A2FFE43360FAC2FFE4F5A3A2FF7B
:100D7000E43360FAC2FFAFA3D2FA22C2FA2081FDA7
:100D8000EF44C0F5A3A2FFE43360FAC2FFE4F5A389
:100D9000A2FFE43360FAC2FFAFA3D2FA22C2FA2064
:100DA00081FD8FA3A2FFE43360FAC2FF8DA3A2FFEF
:100DB000E43360FAC2FFD2FA220000000000000013
:100DC00000000000000000EF1F70011E144E70E9CB
:0D0DD00022787FE4F6D8FD75815C0209727F
:00000001FF
