:060000000208E1020B4EB4
:0300130002055C87
:10001B00020A68C2FA2081FD8FA3A2FFE43360FAC3
:0F002B00C2FF8DA3A2FFE43360FAC2FFD2FA2214
:10003B00020ADE8B408A41894212042BFD7F0B1290
:10004B00001EAB40AA41A942900001120444FD7F5F
:10005B000C12001EAB40AA41A942900002120444AC
:10006B00FD7F0D12001EAB40AA41A9429000031266
:10007B000444FD7F0E12001EAB40AA41A942900022
:10008B0004120444FD7F0F12001EAB40AA41A9428B
:10009B00900005120444FD7F1012001EAB40AA41D4
:1000AB00A942900006120444FD7F1112001EAB40C2
:1000BB00AA41A942900007120444FD7F1212001EB0
:1000CB00AB40AA41A942900008120444FD7F1312D1
:1000DB00001EAB40AA41A942900009120444FD7FC7
:1000EB001412001EAB40AA41A94290000A1204440C
:1000FB00FD7F0A12001EAB40AA41A94290000B12D1
:10010B000444FD7F1512001EAB40AA41A94290008A
:10011B000C120444FD7F2112001EAB40AA41A942E0
:10012B0090000D120444FD7F2212001EAB40AA4129
:10013B00A94290000E120444FD7F1812001EAB4022
:10014B00AA41A94290000F120444FD7F1912001E10
:10015B00AB40AA41A942900010120444FD7F1A1231
:10016B00001EAB40AA41A942900011120444FD7F2E
:10017B001B12001EAB40AA41A9429000121204446C
:10018B00FD7F1C12001EAB40AA41A9429000131226
:10019B000444FD7F1D12001EAB40AA41A9429000F2
:1001AB0014120444FD7F2312001EAB40AA41A94246
:1001BB00900015120444FD7F2412001EAB40AA418F
:1001CB00A942900016120444FD7F2512001EAB407D
:1001DB00AA41A942900017120444FD7F2612001E6B
:1001EB00AB40AA41A942900018120444FD7F29128A
:1001FB00001EAB40AA41A942900019120444FD7F96
:10020B002C12001EAB40AA41A94290001A120444C2
:10021B00FD7F2D12001EAB40AA41A94290001B127C
:10022B000444FD7F2E12001EAB40AA41A942900050
:10023B001C120444FDE4FF12001EAB40AA41A9426C
:10024B0090001D120444FD7F0212001EAB40AA4118
:10025B00A94290001E120444FD7F0712001EAB4002
:10026B00AA41A94290001F120444FD7F0812001EF0
:10027B00AB40AA41A942900020120444FD7F091211
:10028B00001EAB40AA41A942900021120444FD7FFD
:10029B000602001E8B418A428943E4F547E537602D
:1002AB0003020428750803750976F50A750C127597
:1002BB000D76750E4012042BFF700BAB44AA45A9AB
:1002CB004612042B700EAB44AA45A94612042B70A0
:1002DB0075EF6072AB41AA42A94312042B600B75F8
:1002EB000B808B488A49894A800C750BC085444822
:1002FB0085454985464AAB48AA49A94A120D6A74F5
:10030B000F2547F8A607AB48AA49A94AAF470547A7
:10031B008F827583001204446007E547C394104035
:10032B00D5E547C39410501874072547F547E547A3
:10033B00C39417500B74082547F8769B054780EE3E
:10034B00E4F51F02041FAB41AA42A94312042B7010
:10035B000302041FAB44AA45A94612042B700302E7
:10036B00041F750B80751F03752076E4F52175222C
:10037B00C0752312752476752540AB41AA42A9435B
:10038B00120D6A740F2547F8A607AB41AA42A94381
:10039B00AF4705478F827583001204446007E5471A
:1003AB00C3941040D5E547C39410501874072547E4
:1003BB00F547E547C39417500B74082547F8769B10
:1003CB00054780EEE4F547AB44AA45A946120D6AF2
:1003DB0074262547F8A607AB44AA45A946AF47059F
:1003EB00478F827583001204446007E547C394105E
:1003FB0040D5E547C394105018741E2547F547E5C3
:10040B0047C3942E500B74082547F8769B054780FD
:10041B00EEE4F536753701120ED47F01227F0022F0
:10042B00BB010689828A83E0225002E722BBFE02CF
:10043B00E32289828A83E49322BB010CE58229F5AE
:10044B0082E5833AF583E0225006E92582F8E6221D
:10045B00BBFE06E92582F8E222E58229F582E583D7
:10046B003AF583E4932275F008758200EF2FFFEEC7
:10047B0033FECD33CDCC33CCC58233C5829BED9AC5
:10048B00EC99E58298400CF582EE9BFEED9AFDEC23
:10049B0099FC0FD5F0D6E4CEFBE4CDFAE4CCF9A869
:1004AB008222B800C1B90059BA002DEC8BF084CF71
:1004BB00CECDFCE5F0CBF97818EF2FFFEE33FEED48
:1004CB0033FDEC33FCEB33FB10D703994004EB9972
:1004DB00FB0FD8E5E4F9FA227818EF2FFFEE33FE85
:1004EB00ED33FDEC33FCC933C910D7059BE99A40BA
:1004FB0007EC9BFCE99AF90FD8E0E4C9FAE4CCFBD2
:10050B002275F010EF2FFFEE33FEED33FDCC33CC25
:10051B00C833C810D7079BEC9AE899400AED9BFDAE
:10052B00EC9AFCE899F80FD5F0DAE4CDFBE4CCFAC1
:10053B00E4C8F922EB9FF5F0EA9E42F0E99D42F008
:10054B00E89C45F022ECF0A3EDF0A3EEF0A3EFF066
:10055B0022C0E0C0F0C083C082C0D075D000C00004
:10056B00C001C002C003C004C005C006C007C2AAB8
:10057B007F3B120F17EF547F700302061B7F3F1256
:10058B000EF590002FEFF0F4FD7F3F12001E7F352C
:10059B00120F643087FD2087FD7F38120F649000A7
:1005AB002FE0900030F014602614602B14601014B0
:1005BB00601514602A80009000107443F080269020
:1005CB000010744CF0801E9000107452F080169046
:1005DB0000107455F0800E9000107444F08006905B
:1005EB0000107450F0900001E0FCA3E0FDA3E0FECE
:1005FB00A3E02401FFE43EFEE43DFDE43CFC90005F
:10060B00011205509000007401F0B297B2A4800C57
:10061B007F36120F647F38120F64B2A0C28BD2AA3E
:10062B00D007D006D005D004D003D002D001D00023
:10063B00D0D0D082D083D0F0D0E0328F448E438D97
:10064B00428C4175450AE4F546F547F548F549F501
:10065B004D754CCA754B9A754A3BFFFEFDFCAB447E
:10066B00AA43A942A841C312053F700A9000237404
:10067B0030F0E4A3F02275450AAB4DAA4CA94BA868
:10068B004AAF44AE43AD42AC411204AD8E488F49E4
:10069B00E54764016006E5494548603B754701AF96
:1006AB0044AE43AD42AC41AB4DAA4CA94BA84A1248
:1006BB0004ADAC00AD01AE02AF038F448E438D424F
:1006CB008C41E5492430FFAE46054674232EF58256
:1006DB00E43400F583EFF0AF4DAE4CAD4BAC4AE4D8
:1006EB007B0AFAF9F81204AD8F4D8E4C8D4B8C4A68
:1006FB001545E5457083AF46054674232FF582E417
:10070B003400F583E4F022120D22C2A7120EA9EFDA
:10071B0060030207B21209EB900030EFF09000314A
:10072B00E06F603B900030E0900031F0C2AB7F3364
:10073B00120F647544007545007546007BFF7A0EF9
:10074B00792F12029FE4900032F0A3F07F207E03FA
:10075B00120F39900030E090003AF0D2ABC2A49067
:10076B000039E06022E4F0900032E0FEA3E0FFE409
:10077B00FCFD1206467544017545007546237BFF4B
:10078B007A0E793B12029F900034E0700302071738
:10079B00E4F07544FF75450E75465D7BFF7A0E7967
:1007AB004C12029F020717D2A722758C96858C8A52
:1007BB005389FC438902438E04D28C43C18043E6A8
:1007CB0001D2AFE4F537F538F53AC2A300000000CB
:1007DB000000000000D2A3750807750976F50A75AD
:1007EB000B0C750C21750DA0750E07750F24F510EC
:1007FB00120ED1E537640160FA750803750976E4CA
:10080B00F50A750B80750C12750D76750E407F1001
:10081B00780F749BF608DFFC751F03752076E4F5E3
:10082B00217522C07523127524767525407F1078AB
:10083B0026749BF608DFFC7F10E4F536120ED1E52B
:10084B0037640160FA2275A14075F80875A201435F
:10085B00F801D2FA7F017E00120F39C2FA7F017EB6
:10086B0000120F39D2FA7F297E00120F39C2FA20FB
:10087B0081FD75A330A2FFE43360FAC2FFD2FA7B8D
:10088B00FF7A0F797612003E900F98E493FD7F3E2E
:10089B0012001E7D9B7F0412001E7DAD7F05120092
:1008AB001E120DAF90002EE0B401157544FF754577
:1008BB000B7546C27BFF7A0B79B712029F020712A8
:1008CB007544007545007546007BFF7A0B79D21293
:1008DB00029F12096D22787FE4F6D8FD75814F02D5
:1008EB000928020851E493A3F8E493A34003F6808C
:1008FB0001F208DFF48029E493A3F85407240CC811
:10090B00C333C4540F4420C8834004F456800146BB
:10091B00F6DFE4800B0102040810204080900C826B
:10092B00E47E019360BCA3FF543F30E509541FFEE6
:10093B00E493A360010ECF54C025E060A840B8E457
:10094B0093A3FAE493A3F8E493A3C8C582C8CAC5DA
:10095B0083CAF0A3C8C582C8CAC583CADFE9DEE76C
:10096B0080BE120E6CC2A77F3C120F647F38120F31
:10097B0064120EA9EF7064900000E060F4E4F0A341
:10098B00E0FCA3E0FDA3E0FEA3E0FF120646E4F5C6
:10099B004074232540F582E43400F583E0FFC394D3
:1009AB00304017EFD394395011741D2540F582E474
:1009BB003400F583EFF0054080D7741D2540F58298
:1009CB00E43400F583E4F075440175450075460683
:1009DB007B017A00791212029F8096C2AAD2A722BB
:1009EB00C2EDD2EC30EDFDAFBEEFD394607E004094
:1009FB00027E01EFC3947B7D0050027D01ED5E60B2
:100A0B00037F0322EFD394A47E0040027E01EFC349
:100A1B0094BF7D0050027D01ED5E60037F0422EFE9
:100A2B00D394C47E0040027E01EFC394DF7D00505F
:100A3B00027D01ED5E60037F0122EFC394007E0017
:100A4B0040027E01EFC3943D7F0050027F01EF5EB9
:100A5B0060037F02227F003095027F0522C0E0C039
:100A6B00F0C083C082C0D075D000C000C001C002EE
:100A7B00C003C004C005C006C007758DE8758B9018
:100A8B00C3900033E094B6900032E09403501F7B88
:100A9B00017A00793A7D01120F51900033E004F096
:100AAB007006900032E004F0C289D2A8800AC2AB73
:100ABB00D2A49000347401F0D007D006D005D00436
:100ACB00D003D002D001D000D0D0D082D083D0F0D0
:100ADB00D0E032C0E0C0F0C083C082C0D075D0007F
:100AEB00C000C001C002C003C004C005C006C007DF
:100AFB00E5C054F02440601324E0702AAF3A053A65
:100B0B0074082FF8E6F5C2C2C5801B1539E53960AC
:100B1B000DAF3A053A74082FF8E6F5C28008D2C437
:100B2B00753800120ED4C2C0D007D006D005D00441
:100B3B00D003D002D001D000D0D0D082D083D0F05F
:100B4B00D0E032C0E0C0F0C083C082C0D075D0000E
:100B5B00C000C001C002C003C004C005C006C0076E
:100B6B00C2AF7F3B120F17EF547F60217F3F120EF6
:100B7B00F590002FEFF0F4FF900030E0B50710C2B6
:100B8B00ABD2A49000397401F0B2978002B2A0D21C
:100B9B00AFD007D006D005D004D003D002D001D0FF
:100BAB0000D0D0D082D083D0F0D0E03254782075F2
:100BBB006E69742E2E2E00284D6F7665206A6F7924
:100BCB00737469636B290052782F574F5220756EDF
:100BDB0069742E2E2E00576F725769746841636BC0
:100BEB002E63003C2D2020536574204D6F646520CF
:100BFB00202D3E004D6F64653A0054782F4275727C
:100C0B0073740052782F57616B652D6F6E2D526187
:100C1B0064696F007EFCEF70085389FCEB4289809E
:100C2B000CBF01095389CFEBC454F04289EF7021FB
:100C3B00EDD394034005438E04800B538EFBE58E5E
:100C4B005206EE4DF58EE5436004D2A9D2AFD28C9D
:100C5B0022EF64017020EDD394034005438E08808E
:100C6B000B538EF7E58E5206EE4DF58EE543600481
:100C7B00D2ABD2AFD28E224400350000000042002E
:100C8B00320000410039004100340041002E004188
:100C9B000030004100310044000100000000410021
:100CAB0005004C00064A6F79737469636B3A202018
:100CBB0000510012506B747320726376643A2020DB
:100CCB00202020200041000000014F0100EF24FCF8
:100CDB00602004704190002EE0FF64026003EF700F
:100CEB003590002E7401F07544FF75450C75460563
:100CFB00801B90002EE0FF64016003EF70189000E2
:100D0B002E7402F07544FF75450C75460E7BFF7A09
:100D1B000B79FF12029F227D337F1712001E7D7805
:100D2B007F2012001E7D057F1612001E7D0B7F1E7D
:100D3B0012001E7D447F1F12001E758DE8758B906F
:100D4B00E4F5437B017D017F01120C1FC2AFD288FA
:100D5B00E5E454F04406F5E4D2A8C2A8D2AF22854C
:100D6B004782758300120444FFBF24047F828033C3
:100D7B00BF40047F80802CEF70047F9B8025EFD3D6
:100D8B00941F4005EF94244016EFD394244005EFB5
:100D9B009440400BEFD394404009EF945B500474A4
:100DAB00802FFF22E490002EF07544FF75450B75E4
:100DBB0046EE7BFF7A0B79E112029F7FFA7E0012DF
:100DCB000F391209EB900030EFF0A3E06F600A903F
:100DDB000030E0FFA3F0120CD8120EA9EF60DC90EC
:100DEB00002EE060D6228B3C8A3D893EC2FA2081E0
:100DFB00FDEF4440F5A3A2FFE43360FAC2FFE4FF2A
:100E0B00EFC3953F501BAB3CAA3DA93E8F82758328
:100E1B0000120444F5A3A2FFE43360FAC2FF0F8073
:100E2B00DFD2FA224275727374696E672E2E2E0012
:100E3B002320706B747320696E2062757273743A21
:100E4B00004E6F2041434B2D3E74696D656F757479
:100E5B002E0042757273742073746F707065642109
:100E6B00007D387F2012001E7D287F1E12001E7D04
:100E7B00A07F1F12001E7D057F1612001E7D187F9E
:100E8B001812001E7D047F1712001EC2AFD28AE516
:100E9B00E4540F4470F5E4D2AAC28BD2AF22209354
:100EAB0014E54F601EAF4E054EEFB46416E4F54FDC
:100EBB00F54E7F0122AF4E054EEFB46406754F0120
:100ECB00E4F54E7F0022753701E537601CE538707D
:100EDB0018AF3A053A74082FF8E6F53960067538FD
:100EEB0001D2C522E4F537F53A22C2FA2081FDEF93
:100EFB004480F5A3A2FFE43360FAC2FFE4F5A3A29A
:100F0B00FFE43360FAC2FFAFA3D2FA22C2FA208108
:100F1B00FDEF44C0F5A3A2FFE43360FAC2FFE4F592
:100F2B00A3A2FFE43360FAC2FFAFA3D2FA22000000
:100F3B00000000000000000000000000EF1F700127
:100F4B001E144E70E9228D3F7F3F120DF17F35123B
:100F5B000F643086FD2086FD22C2FA2081FD8FA30F
:100F6B00A2FFE43360FAC2FFD2FA220A000C1D89F9
:100F7B002D3B7322F80000B610081D1CC700B2EA07
:0E0F8B000A001F59883109060608440001516A
:00000001FF
