:100000000203A14F033300000000000000000000C5
:1000100000000000005E002400000001000100015B
:1000200000010001000000010000000000000001CC
:100030000001000100015E00440001000100010018
:1000400001000100010000000100000001000000AB
:10005000010000000100005E0062000000010001DC
:10006000000100000001000000000000000100018C
:1000700000000000000000015E008000010001009F
:10008000010001000100010000000000000001006B
:100090000000010001000100005E009E000100015F
:1000A000000100010001000100000001000000014A
:1000B000000100000001000000015E00BC00010022
:1000C000010001000100010001000000010000002A
:1000D00000000100000001000000005E00DA0000E6
:1000E000000100010001000000010000000100000B
:1000F0000001000000000001000100005E00F800A7
:1001000001000100010001000100000000000100E9
:10011000000000000100010001000100015E011665
:1001200000000000000000000001000100000001CC
:1001300000010001000000000000000000015E015D
:100140003400010000000000000000000100000079
:100150000000000001000100010001000100015E3B
:100160000152000100010001000100010000000037
:10017000000100000000000000010000000100017B
:100180005E0170000100010001000100010000009B
:10019000000000000000010000000000000000005E
:1001A000015E018E0001000100010001000100005C
:1001B000000100010000000000000001000100013A
:1001C00000015E01AC00010001000100010001001E
:1001D000010000000000000000000000010001001C
:1001E0000100015E01CA00000001000100010000E1
:1001F00000010000000000000001000000010001FB
:10020000000100005E01E8000100010001000100A2
:1002100001000100000001000000000000000100DA
:1002200000000000005E0206000000010001000165
:1002300000010001000000000001000100000001B9
:100240000001000100015E02240001000100010024
:10025000010001000100000001000000000000009A
:10026000010000000100015E0242000000010000E8
:100270000000000100010000000100000001000179
:1002800000000000000100005E02600001000000AC
:100290000000000000000100010001000100010059
:1002A0000100000000000000005E027E000100016D
:1002B000000100010001000000000000000000013A
:1002C000000100010001000100015E029C0001002C
:1002D000010001000100000000000000000000001B
:1002E00001000100010001000100005E02BA0001EE
:1002F00000010001000100000000000000010001F9
:100300000000000100010001000100005E02D800B1
:1003100001000100000001000100000000000100D8
:10032000000000000100010000000100015E02F673
:1003300000010001000000000000000000000001BA
:1003400000000000000100010001000100015E0347
:100350001400010000000000010001000100000085
:100360000100000001000100010000000000014147
:100370000332034200420000602400000100240117
:1003800000240100240100240100240100240100B4
:100390002401002401002401002401002401002480
:1003A00000787FE4F6D8FD7581070203E80205278F
:1003B000E493A3F8E493A34003F68001F208DFF48A
:1003C0008029E493A3F85407240CC8C333C4540F02
:1003D0004420C8834004F456800146F6DFE4800BD5
:1003E0000102040810204080900003E47E01936025
:1003F000BCA3FF543F30E509541FFEE493A3600102
:100400000ECF54C025E060A840B8E493A3FAE4936B
:10041000A3F8E493A3C8C582C8CAC583CAF0A3C819
:10042000C582C8CAC583CADFE9DEE780BE9003473C
:10043000EBF0A3EAF0A3E9F0900042E07004A3E03F
:10044000640C7006900042F0A3F0900042E0FEA31E
:10045000E090000075F0031204F6EE75F003A42599
:1004600083F583E0F9A3E0FAA3E0900347C9F0A382
:10047000EAF0A3E9F0227B017A03794212042DE429
:10048000900345F0A3F0900345E0FCA3E0FDC39486
:1004900003EC6480948050DE900342E0FBA3E0FA1A
:1004A000A3E0F9120517900332E0FF12053590031F
:1004B00046E004F070D0900345E004F080C8BB0132
:1004C00010E58229F582E5833AF583E0F5F0A3E0B3
:1004D000225009E92582F886F008E622BBFE0AE9E7
:1004E0002582F8E2F5F008E222E5832AF583E99314
:1004F000F5F0A3E99322A42582F582E5F03583F592
:10050000832275F1FF75F2FF75E240E4F5F275A5FF
:10051000FFF5D575900222ED25E0FFEC338F82F5D3
:10052000831204BEF5802275B283E4F5A9F5E312C7
:100530000502020476AE071FEE70FA2207005D93F3
:10054000B12D3B7322F80000B610081D1CC700B285
:10055000EA0A00115988310B06060844000300FB23
:00000001FF
